{
  "address": "0x9DB39C9752AECac70c4127Ee5566e1a33cA56cb5",
  "abi": [
    {
      "inputs": [
        {
          "internalType": "uint256",
          "name": "tokenId",
          "type": "uint256"
        }
      ],
      "name": "collectAllFees",
      "outputs": [
        {
          "internalType": "uint256",
          "name": "amount0",
          "type": "uint256"
        },
        {
          "internalType": "uint256",
          "name": "amount1",
          "type": "uint256"
        }
      ],
      "stateMutability": "nonpayable",
      "type": "function"
    },
    {
      "inputs": [
        {
          "internalType": "uint256",
          "name": "tokenId",
          "type": "uint256"
        }
      ],
      "name": "decreaseLiquidityInHalf",
      "outputs": [
        {
          "internalType": "uint256",
          "name": "amount0",
          "type": "uint256"
        },
        {
          "internalType": "uint256",
          "name": "amount1",
          "type": "uint256"
        }
      ],
      "stateMutability": "nonpayable",
      "type": "function"
    },
    {
      "inputs": [
        {
          "internalType": "uint256",
          "name": "",
          "type": "uint256"
        }
      ],
      "name": "deposits",
      "outputs": [
        {
          "internalType": "address",
          "name": "owner",
          "type": "address"
        },
        {
          "internalType": "uint128",
          "name": "liquidity",
          "type": "uint128"
        },
        {
          "internalType": "address",
          "name": "token0",
          "type": "address"
        },
        {
          "internalType": "address",
          "name": "token1",
          "type": "address"
        }
      ],
      "stateMutability": "view",
      "type": "function"
    },
    {
      "inputs": [
        {
          "internalType": "uint256",
          "name": "tokenId",
          "type": "uint256"
        },
        {
          "internalType": "uint256",
          "name": "amountAdd0",
          "type": "uint256"
        },
        {
          "internalType": "uint256",
          "name": "amountAdd1",
          "type": "uint256"
        }
      ],
      "name": "increaseLiquidityCurrentRange",
      "outputs": [
        {
          "internalType": "uint128",
          "name": "liquidity",
          "type": "uint128"
        },
        {
          "internalType": "uint256",
          "name": "amount0",
          "type": "uint256"
        },
        {
          "internalType": "uint256",
          "name": "amount1",
          "type": "uint256"
        }
      ],
      "stateMutability": "nonpayable",
      "type": "function"
    },
    {
      "inputs": [
        {
          "internalType": "uint256",
          "name": "amount0ToMint",
          "type": "uint256"
        },
        {
          "internalType": "uint256",
          "name": "amount1ToMint",
          "type": "uint256"
        }
      ],
      "name": "mintNewPosition",
      "outputs": [
        {
          "internalType": "uint256",
          "name": "tokenId",
          "type": "uint256"
        },
        {
          "internalType": "uint128",
          "name": "liquidity",
          "type": "uint128"
        },
        {
          "internalType": "uint256",
          "name": "amount0",
          "type": "uint256"
        },
        {
          "internalType": "uint256",
          "name": "amount1",
          "type": "uint256"
        }
      ],
      "stateMutability": "nonpayable",
      "type": "function"
    },
    {
      "inputs": [
        {
          "internalType": "address",
          "name": "operator",
          "type": "address"
        },
        {
          "internalType": "address",
          "name": "",
          "type": "address"
        },
        {
          "internalType": "uint256",
          "name": "tokenId",
          "type": "uint256"
        },
        {
          "internalType": "bytes",
          "name": "",
          "type": "bytes"
        }
      ],
      "name": "onERC721Received",
      "outputs": [
        {
          "internalType": "bytes4",
          "name": "",
          "type": "bytes4"
        }
      ],
      "stateMutability": "nonpayable",
      "type": "function"
    },
    {
      "inputs": [],
      "name": "poolFee",
      "outputs": [
        {
          "internalType": "uint24",
          "name": "",
          "type": "uint24"
        }
      ],
      "stateMutability": "view",
      "type": "function"
    },
    {
      "inputs": [
        {
          "internalType": "uint256",
          "name": "tokenId",
          "type": "uint256"
        }
      ],
      "name": "retrieveNFT",
      "outputs": [],
      "stateMutability": "nonpayable",
      "type": "function"
    },
    {
      "inputs": [
        {
          "internalType": "address",
          "name": "nonfungiblePositionManagerAddress",
          "type": "address"
        }
      ],
      "name": "setNonfungiblePositionManager",
      "outputs": [],
      "stateMutability": "nonpayable",
      "type": "function"
    },
    {
      "inputs": [
        {
          "internalType": "address",
          "name": "tokenAAddress",
          "type": "address"
        },
        {
          "internalType": "address",
          "name": "tokenBAddress",
          "type": "address"
        },
        {
          "internalType": "uint24",
          "name": "fee",
          "type": "uint24"
        }
      ],
      "name": "setPoolVariables",
      "outputs": [],
      "stateMutability": "nonpayable",
      "type": "function"
    },
    {
      "inputs": [],
      "name": "tokenA",
      "outputs": [
        {
          "internalType": "address",
          "name": "",
          "type": "address"
        }
      ],
      "stateMutability": "view",
      "type": "function"
    },
    {
      "inputs": [],
      "name": "tokenB",
      "outputs": [
        {
          "internalType": "address",
          "name": "",
          "type": "address"
        }
      ],
      "stateMutability": "view",
      "type": "function"
    }
  ],
  "transactionHash": "0x1f8c14257a698b28247fe29faefd4a424381dfe042f8b37b7c8855278d902be3",
  "args": [],
  "numDeployments": 1,
  "solcInputHash": "f3f5c16d05a6add6429753c824270a0f",
  "bytecode": "0x608060405234801561001057600080fd5b506115ae806100206000396000f3fe608060405234801561001057600080fd5b50600436106100b45760003560e01c8063617d6d6e11610071578063617d6d6e1461014a5780638187b4c51461016c5780638886d8681461017f578063b02c43d014610192578063cb8451ef146101b5578063f058ebee146101c8576100b4565b8063089fe6aa146100b95780630a1d7c5f146100d75780630fc63d10146100ec578063150b7a021461010157806346ce96dd146101215780635f64b55b14610142575b600080fd5b6100c16101eb565b6040516100ce9190611504565b60405180910390f35b6100ea6100e53660046110dc565b6101fd565b005b6100f46102f3565b6040516100ce919061129a565b61011461010f36600461100e565b610302565b6040516100ce9190611306565b61013461012f3660046110dc565b610349565b6040516100ce929190611541565b6100f461040b565b61015d610158366004611173565b61041a565b6040516100ce939291906114e3565b61013461017a3660046110dc565b6105af565b6100ea61018d366004610fc4565b6106d4565b6101a56101a03660046110dc565b610721565b6040516100ce94939291906112d2565b6100ea6101c3366004610fa1565b610760565b6101db6101d636600461112f565b610782565b6040516100ce949392919061151d565b600254600160a01b900462ffffff1681565b6000818152600360205260409020546001600160a01b0316331461023c5760405162461bcd60e51b815260040161023390611344565b60405180910390fd5b600081815260036020819052604080832080546001600160a01b031990811682556001820180546fffffffffffffffffffffffffffffffff19169055600282018054821690559201805490921690915590549051632142170760e11b81526001600160a01b03909116906342842e0e906102be903090339086906004016112ae565b600060405180830381600087803b1580156102d857600080fd5b505af11580156102ec573d6000803e3d6000fd5b5050505050565b6001546001600160a01b031681565b600080546001600160a01b0316331461032d5760405162461bcd60e51b81526004016102339061131b565b6103378685610988565b50630a85bd0160e11b95945050505050565b604080516080810182528281523060208201526001600160801b03818301819052606082015260008054925163fc6f786560e01b815290928392916001600160a01b039091169063fc6f7865906103a490849060040161136b565b6040805180830381600087803b1580156103bd57600080fd5b505af11580156103d1573d6000803e3d6000fd5b505050506040513d601f19601f820116820180604052508101906103f59190611150565b9093509150610405848484610b33565b50915091565b6002546001600160a01b031681565b600083815260036020819052604082206002810154910154829182916001600160a01b03918216911661044f8233308a610b7f565b61045b81333089610b7f565b6000546104739083906001600160a01b031689610ccf565b60005461048b9082906001600160a01b031688610ccf565b6040805160c08101825289815260208101899052808201889052600060608201819052608082018190524260a083015254915163219f5d1760e01b815290916001600160a01b03169063219f5d17906104e89084906004016113f1565b606060405180830381600087803b15801561050257600080fd5b505af1158015610516573d6000803e3d6000fd5b505050506040513d601f19601f8201168201806040525081019061053a91906110a8565b919750955093508785101561057257600080546105629185916001600160a01b031690610ccf565b848803610570843383610e16565b505b868410156105a357600080546105939184916001600160a01b031690610ccf565b8387036105a1833383610e16565b505b50505093509350939050565b60008181526003602052604081205481906001600160a01b031633146105e75760405162461bcd60e51b815260040161023390611344565b6000838152600360205260408120600101546001600160801b0316906002826040805160a081018252888152929091046001600160801b0381166020840152600083830181905260608401819052426080850152549151630624e65f60e11b81529093506001600160a01b0390911690630c49ccbe9061066b9084906004016113ae565b6040805180830381600087803b15801561068457600080fd5b505af1158015610698573d6000803e3d6000fd5b505050506040513d601f19601f820116820180604052508101906106bc9190611150565b90955093506106cc868686610b33565b505050915091565b600180546001600160a01b03199081166001600160a01b039586161790915560028054909116929093169190911762ffffff60a01b1916600160a01b62ffffff9290921691909102179055565b600360208190526000918252604090912080546001820154600283015492909301546001600160a01b03918216936001600160801b0316928216911684565b600080546001600160a01b0319166001600160a01b0392909216919091179055565b6001546000908190819081906107a3906001600160a01b0316333089610b7f565b6002546107bb906001600160a01b0316333088610b7f565b6001546000546107d8916001600160a01b03908116911688610ccf565b6002546000546107f5916001600160a01b03908116911687610ccf565b60408051610160810182526001546001600160a01b0390811682526002548082166020840152600160a01b900462ffffff1682840152620d89e7196060830152620d89e8608083015260a0820189905260c08201889052600060e0830181905261010083018190523061012084015242610140840152549251634418b22b60e11b815291921690638831645690610890908490600401611435565b608060405180830381600087803b1580156108aa57600080fd5b505af11580156108be573d6000803e3d6000fd5b505050506040513d601f19601f820116820180604052508101906108e291906110f4565b929750909550935091506108f63386610988565b8683101561093a576001546000805461091d926001600160a01b0390811692911690610ccf565b60015483880390610938906001600160a01b03163383610e16565b505b8582101561097e5760025460008054610961926001600160a01b0390811692911690610ccf565b6002548287039061097c906001600160a01b03163383610e16565b505b5092959194509250565b6000805460405163133f757160e31b8152829182916001600160a01b03909116906399fbab88906109bd908790600401611514565b6101806040518083038186803b1580156109d657600080fd5b505afa1580156109ea573d6000803e3d6000fd5b505050506040513d601f19601f82011682018060405250810190610a0e919061119e565b5050505097505050509450945050506040518060800160405280866001600160a01b03168152602001826001600160801b03168152602001846001600160a01b03168152602001836001600160a01b03168152506003600086815260200190815260200160002060008201518160000160006101000a8154816001600160a01b0302191690836001600160a01b0316021790555060208201518160010160006101000a8154816001600160801b0302191690836001600160801b0316021790555060408201518160020160006101000a8154816001600160a01b0302191690836001600160a01b0316021790555060608201518160030160006101000a8154816001600160a01b0302191690836001600160a01b031602179055509050505050505050565b60008381526003602081905260409091208054600282015491909201546001600160a01b03928316929182169116610b6c828487610e16565b610b77818486610e16565b505050505050565b604080516001600160a01b0385811660248301528481166044830152606480830185905283518084039091018152608490920183526020820180516001600160e01b03166323b872dd60e01b178152925182516000948594938a169392918291908083835b60208310610c035780518252601f199092019160209182019101610be4565b6001836020036101000a0380198251168184511680821785525050505050509050019150506000604051808303816000865af19150503d8060008114610c65576040519150601f19603f3d011682016040523d82523d6000602084013e610c6a565b606091505b5091509150818015610c98575080511580610c985750808060200190516020811015610c9557600080fd5b50515b610b77576040805162461bcd60e51b815260206004820152600360248201526229aa2360e91b604482015290519081900360640190fd5b604080516001600160a01b038481166024830152604480830185905283518084039091018152606490920183526020820180516001600160e01b031663095ea7b360e01b1781529251825160009485949389169392918291908083835b60208310610d4b5780518252601f199092019160209182019101610d2c565b6001836020036101000a0380198251168184511680821785525050505050509050019150506000604051808303816000865af19150503d8060008114610dad576040519150601f19603f3d011682016040523d82523d6000602084013e610db2565b606091505b5091509150818015610de0575080511580610de05750808060200190516020811015610ddd57600080fd5b50515b6102ec576040805162461bcd60e51b8152602060048201526002602482015261534160f01b604482015290519081900360640190fd5b604080516001600160a01b038481166024830152604480830185905283518084039091018152606490920183526020820180516001600160e01b031663a9059cbb60e01b1781529251825160009485949389169392918291908083835b60208310610e925780518252601f199092019160209182019101610e73565b6001836020036101000a0380198251168184511680821785525050505050509050019150506000604051808303816000865af19150503d8060008114610ef4576040519150601f19603f3d011682016040523d82523d6000602084013e610ef9565b606091505b5091509150818015610f27575080511580610f275750808060200190516020811015610f2457600080fd5b50515b6102ec576040805162461bcd60e51b815260206004820152600260248201526114d560f21b604482015290519081900360640190fd5b8051610f688161154f565b919050565b8051600281900b8114610f6857600080fd5b80516001600160801b0381168114610f6857600080fd5b8051610f6881611567565b600060208284031215610fb2578081fd5b8135610fbd8161154f565b9392505050565b600080600060608486031215610fd8578182fd5b8335610fe38161154f565b92506020840135610ff38161154f565b9150604084013561100381611567565b809150509250925092565b600080600080600060808688031215611025578081fd5b85356110308161154f565b945060208601356110408161154f565b935060408601359250606086013567ffffffffffffffff80821115611063578283fd5b818801915088601f830112611076578283fd5b813581811115611084578384fd5b896020828501011115611095578384fd5b9699959850939650602001949392505050565b6000806000606084860312156110bc578283fd5b6110c584610f7f565b925060208401519150604084015190509250925092565b6000602082840312156110ed578081fd5b5035919050565b60008060008060808587031215611109578384fd5b8451935061111960208601610f7f565b6040860151606090960151949790965092505050565b60008060408385031215611141578182fd5b50508035926020909101359150565b60008060408385031215611162578182fd5b505080516020909101519092909150565b600080600060608486031215611187578283fd5b505081359360208301359350604090920135919050565b6000806000806000806000806000806000806101808d8f0312156111c0578687fd5b8c516bffffffffffffffffffffffff811681146111db578788fd5b9b506111e960208e01610f5d565b9a506111f760408e01610f5d565b995061120560608e01610f5d565b985061121360808e01610f96565b975061122160a08e01610f6d565b965061122f60c08e01610f6d565b955061123d60e08e01610f7f565b94506101008d015193506101208d0151925061125c6101408e01610f7f565b915061126b6101608e01610f7f565b90509295989b509295989b509295989b565b6001600160a01b03169052565b60020b9052565b62ffffff169052565b6001600160a01b0391909116815260200190565b6001600160a01b039384168152919092166020820152604081019190915260600190565b6001600160a01b0394851681526001600160801b039390931660208401529083166040830152909116606082015260800190565b6001600160e01b031991909116815260200190565b6020808252600f908201526e1b9bdd0818481d5b9a5d8cc81b999d608a1b604082015260600190565b6020808252600d908201526c2737ba103a34329037bbb732b960991b604082015260600190565b815181526020808301516001600160a01b0316908201526040808301516001600160801b0390811691830191909152606092830151169181019190915260800190565b600060a082019050825182526001600160801b03602084015116602083015260408301516040830152606083015160608301526080830151608083015292915050565b600060c082019050825182526020830151602083015260408301516040830152606083015160608301526080830151608083015260a083015160a083015292915050565b60006101608201905061144982845161127d565b602083015161145b602084018261127d565b50604083015161146e6040840182611291565b506060830151611481606084018261128a565b506080830151611494608084018261128a565b5060a083015160a083015260c083015160c083015260e083015160e0830152610100808401518184015250610120808401516114d28285018261127d565b505061014092830151919092015290565b6001600160801b039390931683526020830191909152604082015260600190565b62ffffff91909116815260200190565b90815260200190565b9384526001600160801b039290921660208401526040830152606082015260800190565b918252602082015260400190565b6001600160a01b038116811461156457600080fd5b50565b62ffffff8116811461156457600080fdfea2646970667358221220cff37bde7233fd6b5f029e7b395254155edece1aec067af2b95f6432e67244f464736f6c63430007060033",
  "devdoc": {
    "kind": "dev",
    "methods": {
      "collectAllFees(uint256)": {
        "details": "The contract must hold the erc721 token before it can collect fees",
        "params": {
          "tokenId": "The id of the erc721 token"
        },
        "returns": {
          "amount0": "The amount of fees collected in token0",
          "amount1": "The amount of fees collected in token1"
        }
      },
      "decreaseLiquidityInHalf(uint256)": {
        "params": {
          "tokenId": "The id of the erc721 token"
        },
        "returns": {
          "amount0": "The amount received back in token0",
          "amount1": "The amount returned back in token1"
        }
      },
      "increaseLiquidityCurrentRange(uint256,uint256,uint256)": {
        "details": "Pool must be initialized already to add liquidity",
        "params": {
          "amount0": "The amount to add of token0",
          "amount1": "The amount to add of token1",
          "tokenId": "The id of the erc721 token"
        }
      },
      "mintNewPosition(uint256,uint256)": {
        "returns": {
          "amount0": "The amount of token0",
          "amount1": "The amount of token1",
          "liquidity": "The amount of liquidity for the position",
          "tokenId": "The id of the newly minted ERC721"
        }
      },
      "retrieveNFT(uint256)": {
        "params": {
          "tokenId": "The id of the erc721"
        }
      }
    },
    "stateVariables": {
      "deposits": {
        "details": "deposits[tokenId] => Deposit"
      }
    },
    "version": 1
  },
  "userdoc": {
    "kind": "user",
    "methods": {
      "collectAllFees(uint256)": {
        "notice": "Collects the fees associated with provided liquidity"
      },
      "decreaseLiquidityInHalf(uint256)": {
        "notice": "A function that decreases the current liquidity by half. An example to show how to call the `decreaseLiquidity` function defined in periphery."
      },
      "increaseLiquidityCurrentRange(uint256,uint256,uint256)": {
        "notice": "Increases liquidity in the current range"
      },
      "mintNewPosition(uint256,uint256)": {
        "notice": "Calls the mint function defined in periphery, mints the same amount of each token. For this example we are providing 1000 tokenA and 1000 tokenB in liquidity"
      },
      "retrieveNFT(uint256)": {
        "notice": "Transfers the NFT to the owner"
      }
    },
    "version": 1
  },
  "storageLayout": {
    "storage": [
      {
        "astId": 1708,
        "contract": "contracts/LiquidityExamples.sol:LiquidityExamples",
        "label": "nonfungiblePositionManager",
        "offset": 0,
        "slot": "0",
        "type": "t_contract(INonfungiblePositionManager)2677"
      },
      {
        "astId": 1710,
        "contract": "contracts/LiquidityExamples.sol:LiquidityExamples",
        "label": "tokenA",
        "offset": 0,
        "slot": "1",
        "type": "t_address"
      },
      {
        "astId": 1712,
        "contract": "contracts/LiquidityExamples.sol:LiquidityExamples",
        "label": "tokenB",
        "offset": 0,
        "slot": "2",
        "type": "t_address"
      },
      {
        "astId": 1714,
        "contract": "contracts/LiquidityExamples.sol:LiquidityExamples",
        "label": "poolFee",
        "offset": 20,
        "slot": "2",
        "type": "t_uint24"
      },
      {
        "astId": 1728,
        "contract": "contracts/LiquidityExamples.sol:LiquidityExamples",
        "label": "deposits",
        "offset": 0,
        "slot": "3",
        "type": "t_mapping(t_uint256,t_struct(Deposit)1723_storage)"
      }
    ],
    "types": {
      "t_address": {
        "encoding": "inplace",
        "label": "address",
        "numberOfBytes": "20"
      },
      "t_contract(INonfungiblePositionManager)2677": {
        "encoding": "inplace",
        "label": "contract INonfungiblePositionManager",
        "numberOfBytes": "20"
      },
      "t_mapping(t_uint256,t_struct(Deposit)1723_storage)": {
        "encoding": "mapping",
        "key": "t_uint256",
        "label": "mapping(uint256 => struct LiquidityExamples.Deposit)",
        "numberOfBytes": "32",
        "value": "t_struct(Deposit)1723_storage"
      },
      "t_struct(Deposit)1723_storage": {
        "encoding": "inplace",
        "label": "struct LiquidityExamples.Deposit",
        "members": [
          {
            "astId": 1716,
            "contract": "contracts/LiquidityExamples.sol:LiquidityExamples",
            "label": "owner",
            "offset": 0,
            "slot": "0",
            "type": "t_address"
          },
          {
            "astId": 1718,
            "contract": "contracts/LiquidityExamples.sol:LiquidityExamples",
            "label": "liquidity",
            "offset": 0,
            "slot": "1",
            "type": "t_uint128"
          },
          {
            "astId": 1720,
            "contract": "contracts/LiquidityExamples.sol:LiquidityExamples",
            "label": "token0",
            "offset": 0,
            "slot": "2",
            "type": "t_address"
          },
          {
            "astId": 1722,
            "contract": "contracts/LiquidityExamples.sol:LiquidityExamples",
            "label": "token1",
            "offset": 0,
            "slot": "3",
            "type": "t_address"
          }
        ],
        "numberOfBytes": "128"
      },
      "t_uint128": {
        "encoding": "inplace",
        "label": "uint128",
        "numberOfBytes": "16"
      },
      "t_uint24": {
        "encoding": "inplace",
        "label": "uint24",
        "numberOfBytes": "3"
      },
      "t_uint256": {
        "encoding": "inplace",
        "label": "uint256",
        "numberOfBytes": "32"
      }
    }
  }
}