{
  "address": "0x4Dd8D66382F63Fd9C54B659615d908de962F10B6",
  "abi": [
    {
      "inputs": [],
      "name": "WETH",
      "outputs": [
        {
          "internalType": "address",
          "name": "",
          "type": "address"
        }
      ],
      "stateMutability": "view",
      "type": "function"
    },
    {
      "inputs": [
        {
          "internalType": "uint256",
          "name": "amountIn",
          "type": "uint256"
        }
      ],
      "name": "approveSwapRouter",
      "outputs": [],
      "stateMutability": "nonpayable",
      "type": "function"
    },
    {
      "inputs": [
        {
          "internalType": "uint256",
          "name": "amountIn",
          "type": "uint256"
        }
      ],
      "name": "approveThis",
      "outputs": [],
      "stateMutability": "nonpayable",
      "type": "function"
    },
    {
      "inputs": [],
      "name": "poolFee",
      "outputs": [
        {
          "internalType": "uint24",
          "name": "",
          "type": "uint24"
        }
      ],
      "stateMutability": "view",
      "type": "function"
    },
    {
      "inputs": [
        {
          "internalType": "address",
          "name": "tokenAAddress",
          "type": "address"
        },
        {
          "internalType": "address",
          "name": "tokenBAddress",
          "type": "address"
        },
        {
          "internalType": "address",
          "name": "WETHAddress",
          "type": "address"
        },
        {
          "internalType": "uint24",
          "name": "fee",
          "type": "uint24"
        }
      ],
      "name": "setPoolVariables",
      "outputs": [],
      "stateMutability": "nonpayable",
      "type": "function"
    },
    {
      "inputs": [
        {
          "internalType": "address",
          "name": "swapRouterAddress",
          "type": "address"
        }
      ],
      "name": "setSwapRouter",
      "outputs": [],
      "stateMutability": "nonpayable",
      "type": "function"
    },
    {
      "inputs": [
        {
          "internalType": "uint256",
          "name": "amountIn",
          "type": "uint256"
        }
      ],
      "name": "swapExactInputMultihop",
      "outputs": [
        {
          "internalType": "uint256",
          "name": "amountOut",
          "type": "uint256"
        }
      ],
      "stateMutability": "nonpayable",
      "type": "function"
    },
    {
      "inputs": [
        {
          "internalType": "uint256",
          "name": "amountIn",
          "type": "uint256"
        }
      ],
      "name": "swapExactInputSingle",
      "outputs": [
        {
          "internalType": "uint256",
          "name": "amountOut",
          "type": "uint256"
        }
      ],
      "stateMutability": "nonpayable",
      "type": "function"
    },
    {
      "inputs": [
        {
          "internalType": "uint256",
          "name": "amountOut",
          "type": "uint256"
        },
        {
          "internalType": "uint256",
          "name": "amountInMaximum",
          "type": "uint256"
        }
      ],
      "name": "swapExactOutputMultihop",
      "outputs": [
        {
          "internalType": "uint256",
          "name": "amountIn",
          "type": "uint256"
        }
      ],
      "stateMutability": "nonpayable",
      "type": "function"
    },
    {
      "inputs": [
        {
          "internalType": "uint256",
          "name": "amountOut",
          "type": "uint256"
        },
        {
          "internalType": "uint256",
          "name": "amountInMaximum",
          "type": "uint256"
        }
      ],
      "name": "swapExactOutputSingle",
      "outputs": [
        {
          "internalType": "uint256",
          "name": "amountIn",
          "type": "uint256"
        }
      ],
      "stateMutability": "nonpayable",
      "type": "function"
    },
    {
      "inputs": [],
      "name": "swapRouter",
      "outputs": [
        {
          "internalType": "contract ISwapRouter",
          "name": "",
          "type": "address"
        }
      ],
      "stateMutability": "view",
      "type": "function"
    },
    {
      "inputs": [],
      "name": "tokenA",
      "outputs": [
        {
          "internalType": "address",
          "name": "",
          "type": "address"
        }
      ],
      "stateMutability": "view",
      "type": "function"
    },
    {
      "inputs": [],
      "name": "tokenB",
      "outputs": [
        {
          "internalType": "address",
          "name": "",
          "type": "address"
        }
      ],
      "stateMutability": "view",
      "type": "function"
    },
    {
      "inputs": [
        {
          "internalType": "uint256",
          "name": "amountIn",
          "type": "uint256"
        }
      ],
      "name": "transferIn",
      "outputs": [],
      "stateMutability": "nonpayable",
      "type": "function"
    }
  ],
  "transactionHash": "0x3e3b47d37ccb8bc640ffda585c8d9884b02b799ce9ba411b1d897e011ac3cf4a",
  "args": [],
  "numDeployments": 4,
  "solcInputHash": "b29de8f8bfcdd63463975e20594c684f",
  "bytecode": "0x608060405234801561001057600080fd5b50610d8c806100206000396000f3fe608060405234801561001057600080fd5b50600436106100ea5760003560e01c806373bd43ad1161008c578063c4b69a1811610066578063c4b69a18146101a8578063d65014c3146101bb578063ea317326146101ce578063edd83557146101e1576100ea565b806373bd43ad14610185578063ad5c464814610198578063c31c9c07146101a0576100ea565b80630fc63d10116100c85780630fc63d10146101355780633b85cf6a1461014a578063412736571461016a5780635f64b55b1461017d576100ea565b806305858d42146100ef578063089fe6aa146101045780630a316a7c14610122575b600080fd5b6101026100fd366004610b6b565b6101f4565b005b61010c61020e565b6040516101199190610d3d565b60405180910390f35b610102610130366004610b0f565b610220565b61013d61027b565b6040516101199190610d01565b61015d610158366004610b9b565b61028a565b6040516101199190610d4d565b610102610178366004610af5565b6103cd565b61013d6103ef565b61015d610193366004610b6b565b6103fe565b61013d6104da565b61013d6104e9565b61015d6101b6366004610b9b565b6104f8565b6101026101c9366004610b6b565b61060f565b6101026101dc366004610b6b565b610627565b61015d6101ef366004610b6b565b610644565b60015461020b906001600160a01b031630836106ec565b50565b600354600160a01b900462ffffff1681565b600180546001600160a01b039586166001600160a01b03199182161790915560028054948616948216949094179093556003805462ffffff909216600160a01b0262ffffff60a01b1993909516919093161716919091179055565b6001546001600160a01b031681565b6040805160a081019091526002546003546001546000938493909283926102d4926001600160a01b039081169262ffffff600160a01b820416929082169183911660c08701610caf565b60408051601f1981840301815291815290825233602083015242828201526060820187905260809091018590526000549051631e51809360e31b81529192506001600160a01b03169063f28c049890610331908490600401610d15565b602060405180830381600087803b15801561034b57600080fd5b505af115801561035f573d6000803e3d6000fd5b505050506040513d601f19601f820116820180604052508101906103839190610b83565b9150828210156103c657600154600080546103ac926001600160a01b03908116929116906106ec565b6001546103c6906001600160a01b0316303385870361083a565b5092915050565b600080546001600160a01b0319166001600160a01b0392909216919091179055565b6002546001600160a01b031681565b60408051610100810182526001546001600160a01b03908116825260025481166020830152600354600160a01b900462ffffff168284015233606083015242608083015260a08201849052600060c0830181905260e083018190528054935163414bf38960e01b815290939091169063414bf38990610481908490600401610d28565b602060405180830381600087803b15801561049b57600080fd5b505af11580156104af573d6000803e3d6000fd5b505050506040513d601f19601f820116820180604052508101906104d39190610b83565b9392505050565b6003546001600160a01b031681565b6000546001600160a01b031681565b60408051610100810182526001546001600160a01b03908116825260025481166020830152600354600160a01b900462ffffff168284015233606083015242608083015260a0820185905260c08201849052600060e0830181905280549351631b67c43360e31b815290939091169063db3e21989061057b908490600401610d28565b602060405180830381600087803b15801561059557600080fd5b505af11580156105a9573d6000803e3d6000fd5b505050506040513d601f19601f820116820180604052508101906105cd9190610b83565b9150828210156103c657600154600080546105f6926001600160a01b03908116929116906106ec565b6001546103c6906001600160a01b031633848603610992565b60015461020b906001600160a01b031633308461083a565b60015460005461020b916001600160a01b039081169116836106ec565b6040805160a0810190915260015460035460025460009384939092839261068e926001600160a01b039081169262ffffff600160a01b820416929082169183911660c08701610caf565b60408051601f19818403018152918152908252336020830152428282015260608201869052600060809092018290529054905163c04b8d5960e01b81529192506001600160a01b03169063c04b8d5990610481908490600401610d15565b604080516001600160a01b038481166024830152604480830185905283518084039091018152606490920183526020820180516001600160e01b031663095ea7b360e01b1781529251825160009485949389169392918291908083835b602083106107685780518252601f199092019160209182019101610749565b6001836020036101000a0380198251168184511680821785525050505050509050019150506000604051808303816000865af19150503d80600081146107ca576040519150601f19603f3d011682016040523d82523d6000602084013e6107cf565b606091505b50915091508180156107fd5750805115806107fd57508080602001905160208110156107fa57600080fd5b50515b610833576040805162461bcd60e51b8152602060048201526002602482015261534160f01b604482015290519081900360640190fd5b5050505050565b604080516001600160a01b0385811660248301528481166044830152606480830185905283518084039091018152608490920183526020820180516001600160e01b03166323b872dd60e01b178152925182516000948594938a169392918291908083835b602083106108be5780518252601f19909201916020918201910161089f565b6001836020036101000a0380198251168184511680821785525050505050509050019150506000604051808303816000865af19150503d8060008114610920576040519150601f19603f3d011682016040523d82523d6000602084013e610925565b606091505b5091509150818015610953575080511580610953575080806020019051602081101561095057600080fd5b50515b61098a576040805162461bcd60e51b815260206004820152600360248201526229aa2360e91b604482015290519081900360640190fd5b505050505050565b604080516001600160a01b038481166024830152604480830185905283518084039091018152606490920183526020820180516001600160e01b031663a9059cbb60e01b1781529251825160009485949389169392918291908083835b60208310610a0e5780518252601f1990920191602091820191016109ef565b6001836020036101000a0380198251168184511680821785525050505050509050019150506000604051808303816000865af19150503d8060008114610a70576040519150601f19603f3d011682016040523d82523d6000602084013e610a75565b606091505b5091509150818015610aa3575080511580610aa35750808060200190516020811015610aa057600080fd5b50515b610833576040805162461bcd60e51b815260206004820152600260248201526114d560f21b604482015290519081900360640190fd5b80356001600160a01b0381168114610af057600080fd5b919050565b600060208284031215610b06578081fd5b6104d382610ad9565b60008060008060808587031215610b24578283fd5b610b2d85610ad9565b9350610b3b60208601610ad9565b9250610b4960408601610ad9565b9150606085013562ffffff81168114610b60578182fd5b939692955090935050565b600060208284031215610b7c578081fd5b5035919050565b600060208284031215610b94578081fd5b5051919050565b60008060408385031215610bad578182fd5b50508035926020909101359150565b6001600160a01b03169052565b6000815160a0845280518060a0860152825b81811015610bf857602081840181015160c0888401015201610bdb565b81811115610c09578360c083880101525b5060208401519150610c1e6020860183610bbc565b6040848101519086015260608085015190860152608093840151938501939093525050601f01601f19160160c00190565b80516001600160a01b03908116835260208083015182169084015260408083015162ffffff16908401526060808301518216908401526080808301519084015260a0828101519084015260c0808301519084015260e09182015116910152565b6bffffffffffffffffffffffff19606096871b811682526001600160e81b031960e896871b8116601484015294871b811660178301529290941b909216602b840152921b909116602e82015260420190565b6001600160a01b0391909116815260200190565b6000602082526104d36020830184610bc9565b6101008101610d378284610c4f565b92915050565b62ffffff91909116815260200190565b9081526020019056fea26469706673582212201265270cbbcd6b7018a8c65507625b5ee4f571bebbd55f41fcb4f11711515b2d64736f6c63430007060033",
  "devdoc": {
    "kind": "dev",
    "methods": {
      "swapExactInputMultihop(uint256)": {
        "details": "The calling address must approve this contract to spend at least `amountIn` worth of its tokenA for this function to succeed.",
        "params": {
          "amountIn": "The amount of tokenA to be swapped."
        },
        "returns": {
          "amountOut": "The amount of tokenB received after the swap."
        }
      },
      "swapExactInputSingle(uint256)": {
        "details": "The calling address must approve this contract to spend at least `amountIn` worth of its tokenA for this function to succeed.",
        "params": {
          "amountIn": "The exact amount of tokenA that will be swapped for WETH9."
        },
        "returns": {
          "amountOut": "The amount of tokenB received."
        }
      },
      "swapExactOutputMultihop(uint256,uint256)": {
        "details": "The calling address must approve this contract to spend its tokenA for this function to succeed. As the amount of input tokenA is variable, the calling address will need to approve for a slightly higher amount, anticipating some variance.",
        "params": {
          "amountInMaximum": "The maximum amount of tokenA willing to be swapped for the specified amountOut of tokenB.",
          "amountOut": "The desired amount of tokenB."
        },
        "returns": {
          "amountIn": "The amountIn of tokenA actually spent to receive the desired amountOut."
        }
      },
      "swapExactOutputSingle(uint256,uint256)": {
        "details": "The calling address must approve this contract to spend its tokenA for this function to succeed. As the amount of input tokenA is variable, the calling address will need to approve for a slightly higher amount, anticipating some variance.",
        "params": {
          "amountInMaximum": "The amount of tokenA we are willing to spend to receive the specified amount of tokenB.",
          "amountOut": "The exact amount of tokenB to receive from the swap."
        },
        "returns": {
          "amountIn": "The amount of tokenA actually spent in the swap."
        }
      }
    },
    "version": 1
  },
  "userdoc": {
    "kind": "user",
    "methods": {
      "swapExactInputMultihop(uint256)": {
        "notice": "swapInputMultiplePools swaps a fixed amount of tokenA for a maximum possible amount of tokenB through an intermediary pool. For this example, we will swap tokenA to WETH, then WETH to tokenB to achieve our desired output."
      },
      "swapExactInputSingle(uint256)": {
        "notice": "swapExactInputSingle swaps a fixed amount of tokenA for a maximum possible amount of tokenB using the tokenA/tokenB fee pool by calling `exactInputSingle` in the swap router."
      },
      "swapExactOutputMultihop(uint256,uint256)": {
        "notice": "swapExactOutputMultihop swaps a minimum possible amount of tokenA for a fixed amount of WETH through an intermediary pool. For this example, we want to swap tokenA for tokenB through a WETH pool but we specify the desired amountOut of tokenB. Notice how the path encoding is slightly different for exact output swaps."
      },
      "swapExactOutputSingle(uint256,uint256)": {
        "notice": "swapExactOutputSingle swaps a minimum possible amount of tokenA for a fixed amount of tokenB."
      }
    },
    "version": 1
  },
  "storageLayout": {
    "storage": [
      {
        "astId": 2366,
        "contract": "contracts/SwapExamples.sol:SwapExamples",
        "label": "swapRouter",
        "offset": 0,
        "slot": "0",
        "type": "t_contract(ISwapRouter)3149"
      },
      {
        "astId": 2368,
        "contract": "contracts/SwapExamples.sol:SwapExamples",
        "label": "tokenA",
        "offset": 0,
        "slot": "1",
        "type": "t_address"
      },
      {
        "astId": 2370,
        "contract": "contracts/SwapExamples.sol:SwapExamples",
        "label": "tokenB",
        "offset": 0,
        "slot": "2",
        "type": "t_address"
      },
      {
        "astId": 2372,
        "contract": "contracts/SwapExamples.sol:SwapExamples",
        "label": "WETH",
        "offset": 0,
        "slot": "3",
        "type": "t_address"
      },
      {
        "astId": 2374,
        "contract": "contracts/SwapExamples.sol:SwapExamples",
        "label": "poolFee",
        "offset": 20,
        "slot": "3",
        "type": "t_uint24"
      }
    ],
    "types": {
      "t_address": {
        "encoding": "inplace",
        "label": "address",
        "numberOfBytes": "20"
      },
      "t_contract(ISwapRouter)3149": {
        "encoding": "inplace",
        "label": "contract ISwapRouter",
        "numberOfBytes": "20"
      },
      "t_uint24": {
        "encoding": "inplace",
        "label": "uint24",
        "numberOfBytes": "3"
      }
    }
  }
}